:03000000020BEB05
:0C0BEB00787FE4F6D8FD75816C020A40AA
:0F0BC00074657374203A20000D0A0D0A0D0A00A7
:100B0E00EF1FAC0670011ED39400EC6480948040FD
:0B0B1E000A7D0F7C5ADCFEDDFC80E548
:010B290022A9
:03002300020AECE2
:100AEC00C0E0C0D075D008309904C299C2003098CB
:100AFC000CC298AF49054974392FF8A699D0D0D0BB
:020B0C00E032D5
:100B4200759850758920758BDC758DDC758E40D259
:070B52008EE4F549C2002208
:080C09002000FDD2008F9922AA
:100AC7008B4F8A508951AB4FAA50A95112088C609D
:100AD700130551E5517002055014F912088CFF12E5
:050AE7000C0980E22271
:0F0B840090FE82E030E6F990FE82E054BFF0224E
:090BF70090FE817401F0020B84F0
:0E0BCF0090FE86EFF090FE817402F0020B841F
:0B0B7000120BCF120B7BAF06120BCF55
:090B7B0090FE817403F0020B846A
:0F0B930090FE817404F0120B8490FE87E0FF2225
:0E0BDD0090FE82E4F090FE817405F0020B841D
:0F0BA20090FE827401F090FE817405F0020B84C6
:090C000090FE817406F0020B84E1
:0F0BB10075BA8090FE8074E0F090FE82E4F0222E
:0D0A9400AF4DAE4CAD4BAC4A1209158F4E64
:020AA100AE079E
:100AA300E4FDBD04057F20120C09EE30E7047F311D
:100AB30080027F30120C09EE25E0FE0DBD08E37FB6
:040AC30020020C09F8
:02000300AE0746
:10000500120BF77FEC120B70120BF77FED120BCF73
:0C001500120B7B120B93120BA2120C00BA
:0100210022BC
:100B5900AE05AD07120BF77FEC120BCF120B7BAF73
:070B690005120B70020C00E5
:0209C700AB077C
:1009C9007E007D007C00AF031200038F6BEB04FFF8
:1009D900120003AD07EB2402FF1200038F6CAF0571
:1009E900E4FDFE7804120929C004C005C006C00749
:1009F900AF6BE4FCFDFE780C120929D003D002D0BC
:100A090001D000EF4BFFEE4AFEED49FDEC48FCC07A
:100A190004C005C006C007AF6CE4FCFDFE780412F3
:100A29000902D003D002D001D000EF4BFFEE4AFEFD
:060A3900ED49FDEC48FC54
:010A3F002294
:020B2A00AD0715
:100B2C00E4FEAF05120003AC07ED04FF120003EF67
:050B3C00FEAD04EDFF19
:010B41002291
:10093C00E4F54F7DB67FE0120B597DFF7FF4120B6F
:10094C0059E4FD7FF5120B597F88120B2A8E2B8FE1
:10095C002C7F8A120B2A8E2F8F307F8C120B2A8EB3
:10096C00338F347F8E120B2A8E218F227F90120BA5
:10097C002A8E238F247F92120B2A8E258F267F940A
:10098C00120B2A8E278F287F96120B2A8E298F2ADC
:10099C007F98120B2A8E2D8F2E7F9A120B2A8E3156
:1009AC008F327F9C120B2A8E358F367F9E120B2A2C
:0B09BC008E378F387FC87E00020B0EC4
:100026007FFA1209C78F528E518D508C4F7FF7126F
:1000360009C78F568E558D548C53EC4D4E4F700517
:10004600FFFEFDFC22AF52AE51AD50AC4FEC120795
:10005600CDE4FBFA79807846120730C004C005C0AB
:1000660006C007AC2BAD2CE41207D2E4FBFA79806C
:100076007844120730A804A905AA06AB07D007D012
:1000860006D005D004120532C004C005C006C0075C
:10009600AC2FAD30EC1207D2D003D002D001D00085
:1000A60012062712080B8F5A8E598D588C57AF524D
:1000B600AE51AD50AC4FEC1207CDE4FBFAF97848DF
:1000C600120730C004C005C006C007AC2BAD2CE437
:1000D6001207D2E4FBFAF97846120730A804A905FC
:1000E600AA06AB07D007D006D005D004120532C049
:1000F60004C005C006C007AF52AE51AD50AC4FECC0
:100106001207CDE4FBFAF97848120730C004C0059F
:10011600C006C007AC2BAD2CE41207D2E4FBFAF9FB
:100126007846120730A804A905AA06AB07D007D05F
:1001360006D005D004120532D003D002D001D0007B
:10014600120627C004C005C006C007AC33AD34ECA8
:100156001207D2D003D002D001D00012062712080F
:100166000B8F5E8E5D8D5C8C5BE55A255EFFE559D7
:10017600355DFEE558355CFDE557355B8F628E6172
:100186008D60F55FE55A255EFFE559355DFEE5585C
:10019600355CFDE557355BFC1207CDE4FBFA79A02B
:1001A600784512073012080B8F668E658D648C6356
:1001B600AF62AE61AD60AC5FEC1207CDE4FBFAF95D
:1001C6007840120730E4FBFA797A78C712053612BE
:1001D600080B8F5A8E598D588C57A804A905AA0664
:1001E600AB071208A5EC1207CDC004C005C006C0B7
:1001F60007AC2DAD2EEC1207D2D003D002D001D021
:1002060000120627E4FBFAF9784712073012080BAA
:100216008F5E8E5D8D5C8C5BAC29AD2AEC1207D2AD
:10022600C004C005C006C007AF5AAE59AD58AC579A
:10023600EC1207CDD003D002D001D000120627E47D
:10024600FBFAF97840120627C004C005C006C007AD
:10025600AF5EAE5DAD5CAC5BEC1207CDD003D002F9
:10026600D001D00012053612080B8F5E8E5D8D5CB4
:100276008C5BAC27AD28EC1207D2E4FBFA798078C8
:1002860047120627C004C005C006C007AF5EAE5DB4
:10029600AD5CAC5BEC1207CDE4FBFA7980784012DA
:1002A6000730D003D002D001D00012053612080B59
:1002B6008F5E8E5D8D5C8C5BAC25AD26EC1207D215
:1002C600C004C005C006C007AF5AAE59AD58AC57FA
:1002D600EC1207CDD003D002D001D000120627C001
:1002E60004C005C006C007AF5AAE59AD58AC57ECAE
:1002F6001207CDD003D002D001D000120627E4FBAE
:10030600FAF97849120730C004C005C006C007AC28
:1003160023AD24EC1207D2C004C005C006C007AF47
:100326005AAE59AD58AC57EC1207CDD003D002D017
:1003360001D000120627D003D002D001D00012054A
:1003460036E4FBFAF9784912073012080B8F5A8EF9
:10035600598D588C57EC1207CDE4FBFAF978471201
:100366000730E4FBFA7980783F120536C004C005F1
:10037600C006C007AC21AD22E41207D2D003D002DA
:10038600D001D00012062712080B8F5A8E598D58AD
:100396008C57AF56AE55AD54AC53EC1207CDA804EE
:1003A600A905AA06AB07E4FFFE7D807C491205324B
:1003B60012080B8F6A8E698D688C67AF5EAE5DAD75
:1003C6005CAC5BEC1207CDE4FBFA7980784512074A
:1003D60030C004C005C006C007AF6AAE69AD68ACE0
:1003E60067EC1207CDD003D002D001D0001205323F
:1003F6007B007A5079C37845120627C004C005C031
:1004060006C007AF5AAE59AD58AC57EC1207CDA887
:1004160004A905AA06AB07D007D006D005D004125A
:10042600073012080B8F6A8E698D688C67AC37AD02
:1004360038EC1207D2C004C005C006C007AF6AAECA
:1004460069AD68AC67EC1207CDD003D002D001D0FD
:1004560000120627C004C005C006C007AF6AAE6911
:10046600AD68AC67EC1207CDD003D002D001D00046
:10047600120627E4FBFAF9784F12073012080B8FA1
:100486005A8E598D588C57AC35AD36EC1207D2C002
:1004960004C005C006C007AF6AAE69AD68AC67ECBC
:1004A6001207CDD003D002D001D000120627E4FBFC
:1004B600FAF9784712073012080B8F5E8E5D8D5C55
:1004C6008C5BAC31AD32EC1207D2C004C005C0065D
:1004D600C007E55A255EFFE559355DFEE558355CF2
:1004E600FDE557355BFC1207CDD003D002D001D015
:1004F60000120536E4FBFA79807841120730C00411
:10050600C005C006C007AF6AAE69AD68AC67EC123D
:1005160007CDD003D002D001D00012053612080B49
:080526008F6A8E698D688C67F5
:01052E0022AA
:100A4000120BB1120B4212093CD2ACD2AF120026EB
:100A50008F4D8E4C8D4B8C4A7BFF7A0B79C0120ADE
:100A6000C77818120A947810120A94AF4DAE4CADA4
:100A70004BAC4A7808120A9CE54DFF8F4EAF4E12E0
:100A80000AA17BFF7A0B79C8120AC77FF47E011294
:040A90000B0E80B910
:10052F00020877E86480F8E933E83360110460F07B
:10053F00ED33EC337009E8FCE9FDEAFEEBFF220432
:10054F0060DED3EB9FEA9EE99DE8C2E78CF0C2F72D
:10055F0095F0400CE8CCF8E9CDF9EACEFAEBCFFBF9
:10056F0012084285D0F05804700320D5B3E8047008
:10057F00075002B2D502088192D5EC0460F7E4CCA3
:10058F00C0E0C398F8603B94186008400DD0E0FBC2
:10059F00020859E4FBFAC9FC8028E830E406E4C9F4
:1005AF00FBE4CAFCE830E305E4C9CACBFCE8540716
:1005BF006010F8C3E913F9EA13FAEB13FBEC13FC21
:1005CF00D8F130F52FC3E49CFCEF9BFFEE9AFEEDC4
:1005DF0099FDD0E0FBEF4E4D4C701222DB03020869
:1005EF007EEC2CFCEF33FFEE33FEED33FDED30E709
:1005FF00EB020859EF2BFFEE3AFEED39FDD0E0FB91
:10060F0050130BBB0003020881ED13FDEE13FEEF39
:08061F0013FFEC13FC02085963
:10062700EC4D6011E8497017ED33EC3304600DE4CD
:10063700FCFFFEFD22E933E8330470F80208771265
:10064700084258046009E4CC248150062850090266
:10065700088128400302087EC0E0EB4A7044B98055
:1006670006D0E0FB02086DEF4E701CBD8008EBFF63
:10067700EAFEE9FD80EBE98DF0A4FEE5F002071044
:10068700E9CDF9EAFEEBFFEF89F0A4FCE5F0CE89AE
:10069700F0A42EFFE435F0CD89F0A42DFEE435F06B
:1006A7008067EF4E7005BD80D780C3EF8BF0A4AC99
:1006B700F0EE8BF0A42CFCE435F0F8EF8AF0A42CD4
:1006C700E5F038FCE433CB8DF0A42CFCE5F03BF8E7
:1006D700EE8AF0A42CFCE5F038F8E433CF89F0A4D7
:1006E7002CFCE5F038CF3400CE89F0A42FFFE5F0DD
:1006F7003EFEE433C98DF0A42EFEE5F039CD8AF035
:10070700A42FFFE5F03EFEE43DFD33D0E0FB5007AC
:100717000BBB000F020881EC2CFCEF33FFEE33FE1E
:06072700ED33FD0208594C
:10072D00020881EC5D046005E85904700302087746
:10073D00120842580460F6EC4860F2EC7004FDFEBD
:10074D00FF22C860DB2481C85009C398600250069F
:10075D0002087E9850CAF582E9294B4A7005AB8292
:10076D0002086D75F0007C1A7880C3EF9BEE9AED50
:10077D0099400DC3EF9BFFEE9AFEED99FDE842F017
:10078D00DC23ACF0D0E0FFD0E0FED0E0FDAB82206A
:10079D00E7101BEB60BAEC2CFCEF33FFEE33FEEDF4
:1007AD0033FD020859E803F830E705C0F075F00095
:1007BD00EF2FFFEE33FEED33FD40B830E7C280AAD8
:1007CD0075F020800E75F010800575F0087D007EA7
:1007DD00007F003392D530D5031208F4EC3340106E
:1007ED00EF33FFEE33FEED33FDEC33FCD5F0ED22B0
:0E07FD00E5F0247EA2D513CC92E7CDCEFF22EC
:10080B00EDD2E7CD33EC3392D524814006E4FFFEE5
:10081B00FDFC22FCE4CFCECDCC24E0501174FF8044
:10082B00EDC3CC13CCCD13CDCE13CECF13CF0470E1
:07083B00F030D5DE0208F4E5
:10084200E9D2E7C933E833F892D5EDD2E7CD33ECFC
:0708520033FC5002B2D52275
:10085900EC30E7100FBF000C0EBE00080DBD000400
:100869000BEB6014A2D5EB13FCED92E7FD2274FFAC
:10087900FCFDFEFF22E480F8A2D574FF13FC7D8005
:03088900E480EF19
:10088C00BB010689828A83E0225002E722BBFE026A
:09089C00E32289828A83E493229D
:1008A500E88FF0A4CC8BF0A42CFCE98EF0A42CFCF2
:1008B5008AF0EDA42CFCEA8EF0A4CDA8F08BF0A470
:1008C5002DCC3825F0FDE98FF0A42CCD35F0FCEBCF
:1008D5008EF0A4FEA9F0EB8FF0A4CFC5F02ECD3994
:0F08E500FEE43CFCEAA42DCE35F0FDE43CFC2201
:0E08F400C3E49FFFE49EFEE49DFDE49CFC2215
:10090200E8600FECC313FCED13FDEE13FEEF13FFD3
:03091200D8F122F7
:10091500E86010ECA2E713FCED13FDEE13FEEF13F8
:04092500FFD8F022E5
:10092900E8600FEFC333FFEE33FEED33FDEC33FC2C
:03093900D8F122D0
:00000001FF
